:020000040000FA
:020000000528D1
:08000800090003138316FC300C
:100010008700FF3086000030880003138312FF3012
:100020008800023087000030A20020308400800168
:10003000840A0408803A031D1728FA30A1001E30F4
:10004000A0000718252807142628071087182A2833
:1000500087142B288710071C3028871C49281D2847
:1000600006183528AA2062203628221086183B2838
:10007000AA206B203C28A21006194128AA2074202F
:100080004228221186194728AA207D204828A2113B
:100090002D2806184E28AA2086204F2822128618BE
:1000A0005428AA208F205528A21206195A28AA20BF
:1000B00098205B28221386196028AA20A120612895
:1000C000A2131D2822186A28081C6828081069280D
:1000D000081422140800A2187328881C712888109C
:1000E00072288814A214080022197C28081D7A2876
:1000F00008117B28081522150800A2198528881DDB
:100100008328881184288815A2150800221A8E28B1
:10011000081E8C2808128D28081622160800A21A1C
:100120009728881E9528881296288816A2160800F7
:10013000221BA028081F9E2808139F280817221793
:100140000800A21BA928881FA7288813A828881799
:10015000A2170800FA30A100000000000000000013
:10016000000000000000000000000000A10BAC280F
:0A017000A00BAA281E30A000080012
:02400E00393740
:00000001FF
