:020000040000FA
:020000000528D1
:08000800090003138316FA300E
:100010008700FF30860000308B0002308C000030FB
:100020008D00633092000030810003138312023090
:100030008C0001308D0004309200FE3087000C30BF
:100040009700203084008001840A0408803A031D50
:100050002328003095001712971206183328003015
:100060009500171297128618392815309500171623
:10007000971206193F282A309500171297168619ED
:0C00800045283F309500171697162D28D4
:02400E00393740
:00000001FF
