:020000040000FA
:020000002828AE
:08000800A800030EA9000B1D66
:1000100012280B1106308100AA0B2328FA30AA00FF
:100020002B1BA20A0C1C23280C10900100308E0000
:10003000FF308F0060308E00AB16AC0A2C08093AF6
:10004000031D2328AC01290E8300A80E280E0900E9
:100050000313831601308C00E0308B0005308100E3
:1000600007309F00FF308600FE3087000030880098
:10007000003089000313831201308C00003090009F
:10008000FE308700FF308800203084008001840A21
:100090000408803A031D462809103830B320283060
:1000A000AA203830B3202830AA200630B3202830C8
:1000B000AA200C30B3202830AA200130B3202830E9
:1000C000AA20091409108030B3200130AA20091495
:1000D0005230B3200130AA206F30B3200130AA2063
:1000E0006430B3200130AA207230B3200130AA203E
:1000F0006930B3200130AA206730B3200130AA2034
:100100006F30B3200130AA202030B3200130AA2064
:100110004D30B3200130AA206130B3200130AA2035
:100120007430B3200130AA206830B3200130AA20F7
:100130006530B3200130AA207530B3200130AA20E9
:100140007330B3200130AA207130AB00FA30AA001E
:10015000AC01B728A100FA30A0000000A00BAD2828
:10016000A10BAD28080089148800891008002B18FD
:10017000C420AB18D4202B19D820AB19E1202B1A9E
:10018000E520AB1A0421B7280618C9280000061C70
:10019000AB148618CE280000861C2B150619D32810
:1001A0000000061DAB1508002B16AB102B1708001E
:1001B000A201A301A401A501A601A7012B11AB1562
:1001C00008002B122B13AB11080022080A3A031D5A
:1001D0000329A30AA2012308063A031D0329A40A3E
:1001E000A30124080A3A031D0329A50AA40125082E
:1001F000063A031D0329A60AA50126080A3A031D8B
:100200000329A70AA60108002C08003A031D0F299C
:100210000910C030B3200914013090000C102C08D4
:10022000013A031D19292708303EB3200130900000
:100230000C102C08023A031D23292608303EB32057
:10024000013090000C102C08033A031D2C292E308D
:10025000B320013090000C102C08043A031D3629FD
:100260002508303EB320013090000C102C08053AD0
:10027000031D40292408303EB320013090000C10AB
:100280002C08063A031D49292E30B3200130900076
:100290000C102C08073A031D53292308303EB320C5
:1002A000013090000C102C08083A031D5D2922082B
:0E02B000303EB320013090000C10AB1208005D
:02400E00393740
:00000001FF
