:020000040000FA
:020000001F28B7
:08000800A100030EA0008C1AF8
:100010000D280B19112810141A2824171A08B500D6
:100020001A280B1106308100A20B1A28FA30A20000
:10003000A415A30A200E8300A10E210E09000313AC
:1000400083160F3085000F308600C03087000030E7
:1000500088000030890001308C00E0308B00843053
:100060009F00C5308100243098003330990003137D
:10007000831290309800303090008D309F00FA301D
:100080009200043092000C309700003095009712D7
:100090001712FF308F0000308E00003088000630CD
:1000A0008100FA30A2000030A3000130B30001301B
:1000B000AF00A401B8200E210030A600203084003B
:1000C0008001840A0408803A031D60287520FB2003
:1000D000A419022233212308053A031D72284D2159
:1000E0000030A300241B562266281F151F197628EE
:1000F000031383161E0803138312C3001E08C200D5
:100100004308B7000530BD00B4212730CC001030C3
:10011000CD004008C7003F08C600CD214508303E4D
:10012000BA000330CC00E830CD004B08C7004A08C5
:10013000C600CD214508303EB6006430CD00CC016C
:100140004B08C7004A08C600CD214508303EB8001C
:100150000A30CD00CC014B08C7004A08C600CD21AB
:100160004508303EB9004B08303EBB00CB010800CB
:1001700009103830F2200C30E9203830F2200C30F1
:10018000E9200630F2200C30E9200C30F2200C304F
:10019000E9200130F2200C30E920091483300910E5
:1001A000F22009145430F2206530F2206D30F22034
:1001B0007030F2206530F2207230F2206130F2208F
:1001C0007430F2207530F2207230F2206130F2206B
:1001D0000800AE00FA30B0000000B00BEC28AE0B07
:1001E000EC280800891488008910FA30B10000005A
:1001F000B10BF7280800C4300910F22009143608A2
:10020000F2203808F2203908F2202E30F2203B0884
:10021000F2202030F2204330F22008000030A90004
:10022000A6001A21FF30A6001A21A60B18290800E3
:100230001A2115292908031783128C00031383122E
:100240002608031783128D00031783168C130C15D1
:1002500055308D00AA308D008C148C182D290C116E
:10026000031383120800071006183A29003095007E
:1002700097121712861840295330950097161716B3
:1002800006194629A53095009712171686190800F9
:10029000FA3095009716171208002608143A031D25
:1002A00053290030A6003608A9006A210530E9204C
:1002B0003808A900A60A6A210530E9203908A900F2
:1002C000A60A6A210530E9203B08A900A60A6A218E
:1002D000A60A08002908031783128C00031383124F
:1002E0002608031783128D00031783168C130C1531
:1002F00055308D00AA308D008C148C187D290C117E
:100300000313831208002608031783128D000317B6
:1003100083168C130C14031783120C080313831217
:10032000A9000800030103103C183D07BD0DBC18CF
:100330003D07BD0D3C193D07BD0DBC193D07BE0075
:10034000BD0DBD0E0800BF01C0013C08003A0319F5
:1003500008003D08003A031908003D08C0070318CB
:10036000BF0ABC0BAD290800BF01C0013D08C10098
:10037000C218C0294218C0294308003A03190800CE
:100380003D08003A031908004308C0070318BF0AD4
:100390004208BF07C10BC4290800C401C5014708B2
:1003A000C900CB004608C800CA004608D300470869
:1003B000D4004C08D5004D08D60056085402013030
:1003C000031C5302031CE8294708CB004608CA0057
:1003D000F4210130031C0800C5070318C40A4908AA
:1003E000CB004808CA00E8294D08C9020130031CA7
:1003F000C802031CFE294C08C80208004C08C802A9
:10040000031008008B133608990003138316981CF9
:10041000072A031383128B171E30E9208B13380829
:10042000990003138316981C132A031383128B1746
:100430001E30E9208B133908990003138316981C8A
:100440001F2A031383128B171E30E9208B132E30C3
:10045000990003138316981C2B2A031383128B17FE
:100460001E30E9208B133B08990003138316981C58
:10047000372A031383128B171E30E9208B13433066
:10048000990003138316981C432A031383128B17B6
:100490001E30E9208B130A30990003138316981C31
:1004A0004F2A031383128B17A41108008B133508EE
:1004B000323A031D5E2A3408043EB400333A031D69
:1004C000642A3408083EB400343A031D6A2A34080A
:1004D0000C3EB400353A031D702A3408103EB400B7
:1004E0003408031783128D00031783168C130C1422
:1004F000031783120C080313831299000313831646
:10050000981C802A9810031383121E30E920B40A25
:100510003408031783128D00031783168C130C14F1
:10052000031783120C080313831299000313831615
:10053000981C982A9810031383121E30E920B40ADD
:100540003408031783128D00031783168C130C14C1
:10055000031783120C0803138312990003138316E5
:10056000981CB02A9810031383122C30990003139F
:100570008316981CB92A9810031383121E30E920A1
:10058000B40A3408031783128D00031783168C13E3
:100590000C14031783120C0803138312990003131E
:1005A0008316981CD12A9810031383121E30E92059
:1005B0000A30990003138316981CDC2A9810031341
:0E05C00083121E30E920B40124138B170800AB
:02400E00393740
:00000001FF
