:020000040000FA
:020000001728BF
:08000800A600030EA7000B1D6A
:1000100012280B1106308100A80B1228FA30A80014
:10002000A91AA20A270E8300A60E260E09000313A2
:100030008316A0308B000530810005309F00DF3033
:100040008500FF308600FE30870000308800F830E1
:10005000890003138312DF308500FE3087000030F3
:100060008800F8308900203084008001840A040868
:10007000803A031D35280030A90029142916A91635
:100080007D30A800A201A301A401A5019128820747
:1000900003349F3425340D349934493441341F34AA
:1000A000013419341134C13463348534613471340A
:1000B0000800A916A9100800A201A301A401A50126
:1000C000A91229110800A912A911080022080A3A48
:1000D000031D6C28A30AA2016E200800F8308900D5
:1000E000FF3085000F302205472088007820080067
:1000F000FA30A100FA30A00000000000000000006B
:10010000000000000000000000000000A00B7C28A0
:10011000A10B7A2808003230A1000000A10B8D2825
:10012000080029189C20A918592029195C20A91910
:100130006320291A66209128061CA1280000061CAD
:10014000A914861CA6280000861C2915061DAB28AC
:080150000000061DA9150800BE
:02400E00393740
:00000001FF
