:020000040000FA
:020000000528D1
:08000800090003138316003008
:100010008700FF3086000030880003138312FF3012
:100020008800FE3087000030A2000030A4000030BD
:10003000A3000030A500203084008001840A040859
:10004000803A031D1D28FA30A1001E30A0000314C1
:10005000870DA30A071E8620061834287320061869
:100060003428221400304C2886183C287320861827
:100070003C28221401304C28061944287320061904
:100080004428221402304C2886194C2873208619E3
:100090004C28221403304C28A400221C23282308B7
:1000A000A5000310A50D0310A50D2408A5075B20CE
:1000B0002210880023280F302505820703349F343F
:1000C00025340D349934493441341F340134193402
:1000D0001134C13463348534613471340800FA302A
:1000E000A1001E30A000FA30A100000000000000B6
:1000F0000000000000000000000000000000A10B54
:100100007528A00B73281E30A0000800FE30870061
:060110000030A30008000E
:043000000034003464
:02400E00393740
:00000001FF
