:020000040000FA
:020000001728BF
:08000800A800030EA9000B1D66
:1000100012280B1106308100AA0B1228FA30AA0010
:100020002B1BA20A290E8300A80E280E0900031319
:100030008316A0308B000530810007309F00FF3011
:100040008600FE30870000308800003089000313EE
:100050008312FE308700FF3088002030840080014A
:10006000840A0408803A031D2F28091038305920CB
:100070000C305020383059200C3050200630592098
:100080000C3050200C3059200C30502001305920B9
:100090000C30502009147130AB00FA30AA006228ED
:1000A000A100FA30A0000000A00B5328A10B532898
:1000B0000800891488008910FA30A1000000A10B03
:1000C0005E2808002B186F20AB187F202B19832087
:1000D000AB198C202B1A9020AB1AB020622806187E
:1000E00074280000061CAB14861879280000861CB2
:1000F0002B1506197E280000061DAB1508002B16CF
:10010000AB102B170800A201A301A401A501A601B1
:10011000A7012B11AB1508002B122B13AB110800F4
:1001200022080A3A031DAE28A30AA2012308063AB0
:10013000031DAE28A40AA30124080A3A031DAE2811
:10014000A50AA4012508063A031DAE28A60AA501A2
:1001500026080A3A031DAE28A70AA601AB16080016
:1001600009108530592009144D305920613059202B
:100170007430592068305920653059207530592025
:10018000733059200910C030592009142708303E17
:1001900059202608303E59202E3059202508303E5F
:1001A00059202408303E59202E3059202308303E53
:0A01B00059202208303E59200800B3
:02400E00393740
:00000001FF
